:100000000C945D000C9485000C9485000C94850084
:100010000C9485000C9485000C9485000C9485004C
:100020000C9485000C9485000C9485000C9485003C
:100030000C9485000C9485000C9485000C9485002C
:100040000C94C6040C9485000C9436050C94100591
:100050000C9485000C9485000C9485000C9485000C
:100060000C9485000C9485000000000024002700FB
:100070002A0000000000250028002B0004040404CE
:100080000404040402020202020203030303030342
:10009000010204081020408001020408102001021F
:1000A00004081020000000080002010000030407FB
:1000B0000000000000000000680511241FBECFEF03
:1000C000D8E0DEBFCDBF11E0A0E0B1E0E0EDF5E1AA
:1000D00002C005900D92AE38B107D9F725E0AEE821
:1000E000B1E001C01D92AE36B207E1F710E0CDE5F8
:1000F000D0E004C02197FE010E94E00ACC35D10770
:10010000C9F70E94B2050C94E60A0C94000090E036
:10011000FC01EC55FF4F2491FC01E057FF4F349157
:10012000FC01E458FF4FE491EE23C9F0222339F09B
:10013000233001F1A8F4213019F1223029F1F0E047
:10014000EE0FFF1FEE58FF4FA591B4918FB7F894B3
:10015000EC91611126C030953E233C938FBF0895EA
:100160002730A9F02830C9F0243049F78091800069
:100170008F7D03C0809180008F7780938000DFCFD8
:1001800084B58F7784BDDBCF84B58F7DFBCF809125
:10019000B0008F778093B000D2CF8091B0008F7D78
:1001A000F9CF3E2BDACFCF93DF9390E0FC01E057FD
:1001B000FF4F249184589F4FFC0184918823D1F0F4
:1001C00090E0880F991FFC01E859FF4FA591B49169
:1001D000FC01EE58FF4FC591D49161110EC09FB73D
:1001E000F8948C91E22FE0958E238C932881E22362
:1001F000E8839FBFDF91CF9108958FB7F894EC917A
:10020000E22BEC938FBFF6CF3FB7F8948091B50403
:100210009091B604A091B704B091B80426B5A89BFC
:1002200005C02F3F19F00196A11DB11D3FBFBA2F88
:10023000A92F982F8827BC01CD01620F711D811D48
:10024000911D42E0660F771F881F991F4A95D1F7CD
:100250000895AF92BF92CF92DF92EF92FF920F93E9
:100260001F93CF93DF936C017B018B01040F151F4C
:10027000EB015E01AE18BF08C017D10759F06991B4
:10028000D601ED91FC910190F081E02DC601099518
:10029000892B79F7C501DF91CF911F910F91FF90C5
:1002A000EF90DF90CF90BF90AF900895FC01538DF9
:1002B000448D252F30E0842F90E0821B930B541740
:1002C00010F0CF96089501970895FC01918D828DCD
:1002D000981761F0A28DAE0FBF2FB11D5D968C9166
:1002E000928D9F5F9F73928F90E008958FEF9FEFA5
:1002F0000895FC01918D828D981731F0828DE80F61
:10030000F11D858D90E008958FEF9FEF0895FC011A
:10031000918D228D892F90E0805C9F4F821B9109E7
:100320008F739927089589EB94E00E94870121E05B
:10033000892B09F420E0822F089580E090E0892B3A
:1003400029F00E94930181110C9400000895FC0192
:10035000A48DA80FB92FB11DA35ABF4F2C91848D26
:1003600090E001968F739927848FA689B7892C9383
:10037000A089B1898C91837080648C93938D848DD6
:10038000981306C00288F389E02D80818F7D8083D9
:100390000895EF92FF920F931F93CF93DF93EC0199
:1003A00081E0888F9B8D8C8D98131AC0E889F9891C
:1003B000808185FF15C09FB7F894EE89FF8960831F
:1003C000E889F98980818370806480839FBF81E0A0
:1003D00090E0DF91CF911F910F91FF90EF900895E2
:1003E000F62E0B8D10E00F5F1F4F0F731127E02EBD
:1003F0008C8D8E110CC00FB607FCFACFE889F989F5
:10040000808185FFF5CFCE010E94A701F1CFEB8D52
:10041000EC0FFD2FF11DE35AFF4FF0829FB7F894C8
:100420000B8FEA89FB8980818062CFCFCF93DF93E6
:10043000EC01888D8823B9F0AA89BB89E889F989FC
:100440008C9185FD03C0808186FD0DC00FB607FC31
:10045000F7CF8C9185FFF2CF808185FFEDCFCE0164
:100460000E94A701E9CFDF91CF910895089590E010
:1004700080E00895CF93DF93EC0160E08E810E94CD
:10048000870061E08E810E94870060E08E810E947B
:1004900087008BE891E00197F1F7DF91CF91089504
:1004A000CF92DF92EF92FF920F931F93CF93DF9340
:1004B0006C017C0187E0E80EF11CD0E0C0E0062F63
:1004C00010E0B8010C2E02C0759567950A94E2F70A
:1004D0006170F70181917F010E9487002196C430ED
:1004E000D10579F7C601DF91CF911F910F91FF9050
:1004F000EF90DF90CF900C943A02CF92DF92EF9280
:10050000FF920F931F93CF93DF93EC01F62E642F8E
:100510008C810E9487008D818F3F19F060E00E94DE
:1005200087000F2D10E08F8584FF25C06E0187E0C6
:10053000C80ED11CF12CE12CB8010E2C02C075950F
:1005400067950A94E2F76170F60181916F010E944C
:100550008700FFEFEF1AFF0A88E0E816F10461F761
:10056000CE01DF91CF911F910F91FF90EF90DF901F
:10057000CF900C943A02B80184E0759567958A95FE
:10058000E1F7CE010E9450026F2DCE01DF91CF9195
:100590001F910F91FF90EF90DF90CF900C9450023D
:1005A00040E0682F86E595E00C947D02CF93DF93C1
:1005B000823029F490916505986090936505809349
:1005C000690510926A0580E480936B0580E1809351
:1005D0006C0580E580936D0561E080915A050E946D
:1005E000D30080915B058F3F19F061E00E94D3003A
:1005F00061E080915C050E94D300C6E5D5E09E01D4
:10060000265535408091650584FD0BC084E090E05F
:1006100021962817390744F461E08E810E94D300A7
:10062000EECF88E090E0F4CF8BE39DE00197F1F707
:1006300060E080915A050E94870060E080915C052F
:100640000E94870080915B058F3F19F060E00E9457
:1006500087008091650584FD39C063E086E595E0FB
:100660000E945002CBE4D6E4CE010197F1F763E09B
:1006700086E595E00E9450022197F1F763E086E558
:1006800095E00E94500283E592E00197F1F762E065
:1006900086E595E00E9450028091650580620E9487
:1006A000D00284E0809366058CE00E94D00281E055
:1006B0000E94D0028BE39FE10197F1F782E08093E3
:1006C000670586E0DF91CF910C94D00280620E9492
:1006D000D0028BE496E40197F1F780916505806282
:1006E0000E94D00283E592E00197F1F780916505C1
:1006F00080620E94D002D0CF41E00E947D0281E062
:1007000090E00895FB0101900020E9F73197AF01D7
:10071000461B570BDC01ED91FC910280F381E02D2B
:1007200009948F929F92AF92BF920F931F93CF9392
:10073000DF93CDB7DEB7A1970FB6F894DEBF0FBE3B
:10074000CDBF19A2423008F44AE08E010F5D1F4F61
:10075000842E912CB12CA12CA50194010E94BE0ADB
:10076000E62FB901CA01EA3004F5E05DD801EE9345
:100770008D01232B242B252B79F790E080E0109717
:1007800029F0BD0189EB94E00E948203A1960FB687
:10079000F894DEBF0FBECDBFDF91CF911F910F91B7
:1007A000BF90AF909F908F900895E95CDFCFCF937B
:1007B000DF93BC0189EB94E00E948203EC0166E3C5
:1007C00071E089EB94E00E9482038C0F9D1FDF9102
:1007D000CF9108954F925F926F927F928F929F92E6
:1007E000AF92BF92CF92DF92EF92FF920F931F933F
:1007F000CF936B017C01742EAC019B010E94B90A5E
:1008000069E371E0811126C046015701E894B7F809
:100810002FEF3FEF4FE75FE7C501B4010E94B90A30
:1008200081110CC02FEF3FEF4FE75FE7C501B40127
:100830000E94EF086DE371E0181664F02FEF3FEFB0
:100840004FE75FE4C701B6010E94470A1816ACF4EF
:1008500061E471E089EB94E0CF911F910F91FF90DB
:10086000EF90DF90CF90BF90AF909F908F907F9050
:100870006F905F904F900C9482032FEF3FEF4FE704
:100880005FECC701B6010E94EF0887FDE1CF20E0D1
:1008900030E0A901C701B6010E94EF0810E000E0B6
:1008A00087FF0AC06DE289EB94E00E94C9018C01C8
:1008B000F7FAF094F7F8F094C0E060E070E080E0C0
:1008C0009FE37C1641F020E030E040E251E40E94DA
:1008D000F408CF5FF6CFA70196010E9483082B0191
:1008E0003C010E9466094B015C014AE00E949103B1
:1008F0007C01E00EF11ECC23C1F1C501B4010E94C0
:1009000095099B01AC01C301B2010E9482084B0111
:100910005C016EE289EB94E00E94C901E80EF91EC9
:10092000C15018F120E030E040E251E4C501B401CB
:100930000E944C0A2B013C010E9466094B01B12C1C
:10094000A12C4AE0C501B4010E949103E80EF91EF2
:10095000C501B4010E9495099B01AC01C301B2011C
:100960000E9482084B015C01DBCFC701CF911F9130
:100970000F91FF90EF90DF90CF90BF90AF909F903E
:100980008F907F906F905F904F9008951F920F927D
:100990000FB60F9211242F933F938F939F93AF9392
:1009A000BF938091B1049091B204A091B304B0912F
:1009B000B4043091B00423E0230F2D3758F501968D
:1009C000A11DB11D2093B0048093B1049093B20493
:1009D000A093B304B093B4048091B5049091B6048D
:1009E000A091B704B091B8040196A11DB11D8093E8
:1009F000B5049093B604A093B704B093B804BF9124
:100A0000AF919F918F913F912F910F900FBE0F90BB
:100A10001F90189526E8230F0296A11DB11DD2CF75
:100A20001F920F920FB60F9211242F933F934F9363
:100A30005F936F937F938F939F93AF93BF93EF9346
:100A4000FF9389EB94E00E94A701FF91EF91BF9182
:100A5000AF919F918F917F916F915F914F913F9156
:100A60002F910F900FBE0F901F9018951F920F920D
:100A70000FB60F9211242F938F939F93EF93FF93B1
:100A8000E091C904F091CA048081E091CF04F09113
:100A9000D00482FD1BC090818091D2048F5F8F7340
:100AA0002091D304821741F0E091D204F0E0E754A2
:100AB000FB4F958F8093D204FF91EF919F918F917F
:100AC0002F910F900FBE0F901F9018958081F4CF3B
:100AD000E9EBF4E01382128288EE93E0A0E0B0E04C
:100AE00084839583A683B7838CE191E0918380838F
:100AF00085EC90E09587848784EC90E097878687E3
:100B000080EC90E0918B808B81EC90E0938B828BDA
:100B100082EC90E0958B848B86EC90E0978B868BB3
:100B2000118E128E138E148EE6E5F5E0138212827A
:100B30008EE291E0918380838DE084838FEF8583C3
:100B40008CE086838BE087838AE0808789E08187D9
:100B500088E082871386148615861686178681E0BC
:100B60000C94D602CF93DF93CDB7DEB7A0970FB624
:100B7000F894DEBF0FBECDBF789484B5826084BD8B
:100B800084B5816084BD85B5826085BD85B5816091
:100B900085BD80916E00816080936E00109281000F
:100BA00080918100826080938100809181008160CA
:100BB000809381008091800081608093800080918B
:100BC000B10084608093B1008091B0008160809317
:100BD000B00080917A00846080937A0080917A00DE
:100BE000826080937A0080917A00816080937A009D
:100BF00080917A00806880937A001092C100E09121
:100C0000C904F091CA0482E08083E091C504F091A8
:100C1000C6041082E091C704F091C8048FEC808371
:100C20001092D104E091CD04F091CE0486E080834F
:100C3000E091CB04F091CC04808180618083E091CD
:100C4000CB04F091CC04808188608083E091CB0458
:100C5000F091CC04808180688083E091CB04F09196
:100C6000CC0480818F7D808360E08EE00E94D30081
:100C700061E087E00E94D30061E083E00E94D3003E
:100C800082E00E94D6020EEA14E08EE193E09A839D
:100C9000898320E4722E0E94040170927C0080916E
:100CA0007A00806480937A0080917A0086FDFCCF80
:100CB0006091780070917900072E000C880B990BD9
:100CC0000E94970920E030EC4FE754E40E94F408BA
:100CD000A981BA816D937D938D939D93BA83A983E6
:100CE0000E9404016B017C0194E0892E912CA12CBF
:100CF000B12C0E9404016C197D098E099F09683E80
:100D0000734081059105A8F3B1E08B1A9108A10801
:100D1000B108E8EECE0EE3E0DE1EE11CF11C81140A
:100D20009104A104B10429F789819A810817190750
:100D300009F0B1CF85E491E00E94D7038DE491E002
:100D40000E94D70381E00E94D0028BE39FE10197CC
:100D5000F1F7E1E0809169058111E0E0E195F0E0D3
:100D6000EA5AFA4F848980680E94D00265E571E0F2
:100D700086E595E00E94820380910401909105012F
:100D8000A0910601B09107018F839887A987BA8740
:100D90008091080190910901A0910A01B0910B0185
:100DA0008F8B988FA98FBA8F80910C0190910D0134
:100DB000A0910E01B0910F018B839C83AD83BE8304
:100DC0008091100190911101A0911201B091130135
:100DD0008B879C87AD87BE87809114019091150108
:100DE000A0911601B09117018B8F9C8FAD8FBE8F94
:100DF0008091220390912303A0912403B0912503B5
:100E00008B8B9C8BAD8BBE8B80911E0390911F03AF
:100E1000A0912003B09121038F87988BA98BBA8B67
:100E20008EE8282E81E0382EAEE1B3E0BA83A983A4
:100E30008101812C912C54017501640118A21F8E2F
:100E4000EF8DF8A1EF2B09F0A3C020EA37ED40EFBA
:100E50005BE36F85788989899A890E944C0A6B01C6
:100E60007C012B813C814D815E810E944C0A609304
:100E70008E0170938F018093900190939101EF8D7B
:100E8000F8A13196F8A3EF8F0C5F1F4F89819A81EB
:100E900004969A838983E436F10591F6AEE8B1E0D1
:100EA000B093AF04A093AE04EEE1F3E0FA83E983DC
:100EB000C12CD12C76014AE0C701B6010E949103F2
:100EC0006CE871E089EB94E00E948203A981BA8109
:100ED0006D917D918D919D91BA83A98342E00E948D
:100EE000EA036CE871E089EB94E00E948203F1016F
:100EF000608171818281938142E00E94EA0388E3EC
:100F000091E00E94D70320E030E040E05FE3D101B0
:100F10006D917D918D919C910E94470A18160CF05D
:100F2000D8C061E087E00E94870061E083E00E9412
:100F30008700E0916905E23008F0C9C0E150F0E0B7
:100F4000EA5AFA4F848980680E94D00265E671E00F
:100F500086E595E00E948203BFEFCB1ADB0AEB0A1D
:100F6000FB0AE4E02E0E311CF4E6CF16D104E104B6
:100F7000F10409F0A0CF80E090E0892B09F4FCCEC9
:100F80000E949301882309F4F7CE0E940000F4CE5A
:100F90008F8D98A120EA37ED40EF5BE30197B9F51B
:100FA0006B897C898D899E890E944C0A4B015C016A
:100FB000A70196016F81788589859A850E944C0AE0
:100FC0009B01AC01C501B4010E9482084B015C0188
:100FD0002B813C814D815E810E944C0A2B013C019A
:100FE000A70196016B857C858D859E850E944C0AA4
:100FF0009B01AC01C301B2010E948308609392017E
:1010000070939301809394019093950138CFA981B7
:10101000BA816D917D918D919C910E944C0A2B011A
:101020003C01A50194016F81788589859A850E948C
:101030004C0A9B01AC01C301B2010E9482082B0142
:101040003C01A70196016F89788D898D9A8D0E9448
:101050004C0A9B01AC01C301B2010E9482086B01E2
:101060007C012B813C814D815E810E944C0A2B01C9
:101070003C01A50194016B857C858D859E850E9430
:101080004C0A9B01AC01C301B2010E9483082B01F1
:101090003C01EF8DF8A120E030E0A901329731F05A
:1010A000F801389720813181428153816B8D7C8D8D
:1010B0008D8D9E8D0E944C0AA30192010E9483088F
:1010C000D8016D937D938D939C931397D8CEE1E0D7
:1010D00036CF60E087E00E94870060E083E00E94F6
:1010E0008700E0916905E23058F4E150F0E0EA5AF7
:1010F000FA4F848980680E94D0026AE771E028CFA5
:10110000E1E0F4CF5058BB27AA270E949A080C941C
:101110000D0A0E94FF0938F00E94060A20F039F4F7
:101120009F3F19F426F40C94FC090EF4E095E7FBBC
:101130000C94F609E92F0E941E0A58F3BA176207A9
:1011400073078407950720F079F4A6F50C94400AFC
:101150000EF4E0950B2EBA2FA02D0B01B9019001D2
:101160000C01CA01A0011124FF27591B99F0593F16
:1011700050F4503E68F11A16F040A22F232F342F5E
:101180004427585FF3CF469537952795A795F040AC
:101190005395C9F77EF41F16BA0B620B730B840BC1
:1011A000BAF09150A1F0FF0FBB1F661F771F881F79
:1011B000C2F70EC0BA0F621F731F841F48F48795D1
:1011C00077956795B795F7959E3F08F0B0CF9395C3
:1011D000880F08F09927EE0F9795879508950E943C
:1011E000D20908F481E008950E9408090C940D0AC0
:1011F0000E94060A58F00E94FF0940F029F45F3F60
:1012000029F00C94F60951110C94410A0C94FC0934
:101210000E941E0A68F39923B1F3552391F3951B9D
:10122000550BBB27AA2762177307840738F09F5F07
:101230005F4F220F331F441FAA1FA9F335D00E2E74
:101240003AF0E0E832D091505040E695001CCAF7E1
:101250002BD0FE2F29D0660F771F881FBB1F2617A4
:1012600037074807AB07B0E809F0BB0B802DBF017B
:10127000FF2793585F4F3AF09E3F510578F00C944A
:10128000F6090C94410A5F3FE4F3983ED4F3869547
:1012900077956795B795F7959F5FC9F7880F911D6B
:1012A0009695879597F90895E1E0660F771F881F57
:1012B000BB1F621773078407BA0720F0621B730B0A
:1012C000840BBA0BEE1F88F7E09508950E94260A5A
:1012D00088F09F5798F0B92F9927B751B0F0E1F0F7
:1012E000660F771F881F991F1AF0BA95C9F714C0A7
:1012F000B13091F00E94400AB1E008950C94400A88
:10130000672F782F8827B85F39F0B93FCCF38695DF
:1013100077956795B395D9F73EF49095809570953C
:1013200061957F4F8F4F9F4F0895E89409C097FBB9
:101330003EF490958095709561957F4F8F4F9F4FAC
:101340009923A9F0F92F96E9BB279395F6958795F0
:1013500077956795B795F111F8CFFAF4BB0F11F4B3
:1013600060FF1BC06F5F7F4F8F4F9F4F16C088235A
:1013700011F096E911C0772321F09EE8872F762F90
:1013800005C0662371F096E8862F70E060E02AF0D1
:101390009A95660F771F881FDAF7880F96958795BD
:1013A00097F90895990F0008550FAA0BE0E8FEEF92
:1013B00016161706E807F907C0F012161306E40719
:1013C000F50798F0621B730B840B950B39F40A2612
:1013D00061F0232B242B252B21F408950A2609F4F0
:1013E000A140A6958FEF811D811D089597F99F67F4
:1013F00080E870E060E008959FEF80EC089500249D
:101400000A941616170618060906089500240A9469
:1014100012161306140605060895092E0394000CEF
:1014200011F4882352F0BB0F40F4BF2B11F460FF7E
:1014300004C06F5F7F4F8F4F9F4F089557FD9058A7
:10144000440F551F59F05F3F71F04795880F97FB88
:10145000991F61F09F3F79F0879508951216130642
:101460001406551FF2CF4695F1DF08C01616170671
:101470001806991FF1CF86957105610508940895A6
:10148000E894BB2766277727CB0197F908950E9438
:10149000D20908F48FEF08950E945F0A0C940D0A98
:1014A0000E94FF0938F00E94060A20F0952311F0EF
:1014B0000C94F6090C94FC0911240C94410A0E9426
:1014C0001E0A70F3959FC1F3950F50E0551F629F60
:1014D000F001729FBB27F00DB11D639FAA27F00D8D
:1014E000B11DAA1F649F6627B00DA11D661F829FB4
:1014F0002227B00DA11D621F739FB00DA11D621F99
:10150000839FA00D611D221F749F3327A00D611DB5
:10151000231F849F600D211D822F762F6A2F112497
:101520009F5750409AF0F1F088234AF0EE0FFF1FCA
:10153000BB1F661F771F881F91505040A9F79E3F21
:10154000510580F00C94F6090C94410A5F3FE4F3D6
:10155000983ED4F3869577956795B795F795E79577
:101560009F5FC1F7FE2B880F911D9695879597F980
:1015700008950E94D209880B990B0895A1E21A2EB2
:10158000AA1BBB1BFD010DC0AA1FBB1FEE1FFF1F27
:10159000A217B307E407F50720F0A21BB30BE40B77
:1015A000F50B661F771F881F991F1A9469F76095BE
:1015B0007095809590959B01AC01BD01CF01089578
:1015C000EE0FFF1F0590F491E02D0994F894FFCFE2
:1015D0000000803F2723DFBF0BCD453F0000803F49
:1015E000000000400000803F00000000C901290108
:1015F00056011602870165017901000000007C0395
:101600002901370236020D0A006E616E00696E66AE
:10161000006F7666006E202058202059002D2D2D59
:101620002D2D2D2D004C6967687420496E74656EF0
:1016300073697479005374617475733A20446574E6
:101640006563746564202020200053746174757391
:0E1650003A204E6F726D616C20202020200029
:00000001FF
