:020000040000FA
:100000000C945D000C9485000C9485000C94850084
:100010000C9485000C9485000C9485000C9485004C
:100020000C9485000C9485000C9485000C9485003C
:100030000C9485000C9485000C9485000C9485002C
:100040000C94C6040C9485000C9436050C94100591
:100050000C9485000C9485000C9485000C9485000C
:100060000C9485000C9485000000000024002700FB
:100070002A0000000000250028002B0004040404CE
:100080000404040402020202020203030303030342
:10009000010204081020408001020408102001021F
:1000A00004081020000000080002010000030407FB
:1000B0000000000000000000680511241FBECFEF03
:1000C000D8E0DEBFCDBF11E0A0E0B1E0ECEEF5E19D
:1000D00002C005900D92A838B107D9F725E0A8E82D
:1000E000B1E001C01D92AA36B207E1F710E0CDE5FC
:1000F000D0E004C02197FE010E94EE0ACC35D10762
:10010000C9F70E94B2050C94F40A0C94000090E028
:10011000FC01EC55FF4F2491FC01E057FF4F349157
:10012000FC01E458FF4FE491EE23C9F0222339F09B
:10013000233001F1A8F4213019F1223029F1F0E047
:10014000EE0FFF1FEE58FF4FA591B4918FB7F894B3
:10015000EC91611126C030953E233C938FBF0895EA
:100160002730A9F02830C9F0243049F78091800069
:100170008F7D03C0809180008F7780938000DFCFD8
:1001800084B58F7784BDDBCF84B58F7DFBCF809125
:10019000B0008F778093B000D2CF8091B0008F7D78
:1001A000F9CF3E2BDACFCF93DF9390E0FC01E057FD
:1001B000FF4F249184589F4FFC0184918823D1F0F4
:1001C00090E0880F991FFC01E859FF4FA591B49169
:1001D000FC01EE58FF4FC591D49161110EC09FB73D
:1001E000F8948C91E22FE0958E238C932881E22362
:1001F000E8839FBFDF91CF9108958FB7F894EC917A
:10020000E22BEC938FBFF6CF3FB7F8948091B10407
:100210009091B204A091B304B091B40426B5A89B08
:1002200005C02F3F19F00196A11DB11D3FBFBA2F88
:10023000A92F982F8827BC01CD01620F711D811D48
:10024000911D42E0660F771F881F991F4A95D1F7CD
:100250000895AF92BF92CF92DF92EF92FF920F93E9
:100260001F93CF93DF936C017B018B01040F151F4C
:10027000EB015E01AE18BF08C017D10759F06991B4
:10028000D601ED91FC910190F081E02DC601099518
:10029000892B79F7C501DF91CF911F910F91FF90C5
:1002A000EF90DF90CF90BF90AF900895FC01538DF9
:1002B000448D252F30E0842F90E0821B930B541740
:1002C00010F0CF96089501970895FC01918D828DCD
:1002D000981761F0A28DAE0FBF2FB11D5D968C9166
:1002E000928D9F5F9F73928F90E008958FEF9FEFA5
:1002F0000895FC01918D828D981731F0828DE80F61
:10030000F11D858D90E008958FEF9FEF0895FC011A
:10031000918D228D892F90E0805C9F4F821B9109E7
:100320008F739927089585EB94E00E94870121E05F
:10033000892B09F420E0822F089580E090E0892B3A
:1003400029F00E94930181110C9400000895FC0192
:10035000A48DA80FB92FB11DA35ABF4F2C91848D26
:1003600090E001968F739927848FA689B7892C9383
:10037000A089B1898C91837080648C93938D848DD6
:10038000981306C00288F389E02D80818F7D8083D9
:100390000895EF92FF920F931F93CF93DF93EC0199
:1003A00081E0888F9B8D8C8D98131AC0E889F9891C
:1003B000808185FF15C09FB7F894EE89FF8960831F
:1003C000E889F98980818370806480839FBF81E0A0
:1003D00090E0DF91CF911F910F91FF90EF900895E2
:1003E000F62E0B8D10E00F5F1F4F0F731127E02EBD
:1003F0008C8D8E110CC00FB607FCFACFE889F989F5
:10040000808185FFF5CFCE010E94A701F1CFEB8D52
:10041000EC0FFD2FF11DE35AFF4FF0829FB7F894C8
:100420000B8FEA89FB8980818062CFCFCF93DF93E6
:10043000EC01888D8823B9F0AA89BB89E889F989FC
:100440008C9185FD03C0808186FD0DC00FB607FC31
:10045000F7CF8C9185FFF2CF808185FFEDCFCE0164
:100460000E94A701E9CFDF91CF910895089590E010
:1004700080E00895CF93DF93EC0160E08E810E94CD
:10048000870061E08E810E94870060E08E810E947B
:1004900087008BE891E00197F1F7DF91CF91089504
:1004A000CF92DF92EF92FF920F931F93CF93DF9340
:1004B0006C017C0187E0E80EF11CD0E0C0E0062F63
:1004C00010E0B8010C2E02C0759567950A94E2F70A
:1004D0006170F70181917F010E9487002196C430ED
:1004E000D10579F7C601DF91CF911F910F91FF9050
:1004F000EF90DF90CF900C943A02CF92DF92EF9280
:10050000FF920F931F93CF93DF93EC01F62E642F8E
:100510008C810E9487008D818F3F19F060E00E94DE
:1005200087000F2D10E08F8584FF25C06E0187E0C6
:10053000C80ED11CF12CE12CB8010E2C02C075950F
:1005400067950A94E2F76170F60181916F010E944C
:100550008700FFEFEF1AFF0A88E0E816F10461F761
:10056000CE01DF91CF911F910F91FF90EF90DF901F
:10057000CF900C943A02B80184E0759567958A95FE
:10058000E1F7CE010E9450026F2DCE01DF91CF9195
:100590001F910F91FF90EF90DF90CF900C9450023D
:1005A00040E0682F82E595E00C947D02CF93DF93C5
:1005B000823029F490916105986090936105809351
:1005C00065051092660580E48093670580E180935D
:1005D000680580E58093690561E0809156050E9479
:1005E000D300809157058F3F19F061E00E94D3003E
:1005F00061E0809158050E94D300C2E5D5E09E01DC
:10060000225535408091610584FD0BC084E090E067
:1006100021962817390744F461E08E810E94D300A7
:10062000EECF88E090E0F4CF8BE39DE00197F1F707
:1006300060E0809156050E94870060E08091580537
:100640000E948700809157058F3F19F060E00E945B
:1006500087008091610584FD39C063E082E595E003
:100660000E945002CBE4D6E4CE010197F1F763E09B
:1006700082E595E00E9450022197F1F763E082E560
:1006800095E00E94500283E592E00197F1F762E065
:1006900082E595E00E9450028091610580620E948F
:1006A000D00284E0809362058CE00E94D00281E059
:1006B0000E94D0028BE39FE10197F1F782E08093E3
:1006C000630586E0DF91CF910C94D00280620E9496
:1006D000D0028BE496E40197F1F780916105806286
:1006E0000E94D00283E592E00197F1F780916105C5
:1006F00080620E94D002D0CF41E00E947D0281E062
:1007000090E00895FB0101900020E9F73197AF01D7
:10071000461B570BDC01ED91FC910280F381E02D2B
:1007200009948F929F92AF92BF920F931F93CF9392
:10073000DF93CDB7DEB7A1970FB6F894DEBF0FBE3B
:10074000CDBF19A2423008F44AE08E010F5D1F4F61
:10075000842E912CB12CA12CA50194010E94CC0ACD
:10076000E62FB901CA01EA3004F5E05DD801EE9345
:100770008D01232B242B252B79F790E080E0109717
:1007800029F0BD0185EB94E00E948203A1960FB68B
:10079000F894DEBF0FBECDBFDF91CF911F910F91B7
:1007A000BF90AF909F908F900895E95CDFCFCF937B
:1007B000DF93BC0185EB94E00E948203EC0166E3C9
:1007C00071E085EB94E00E9482038C0F9D1FDF9106
:1007D000CF9108954F925F926F927F928F929F92E6
:1007E000AF92BF92CF92DF92EF92FF920F931F933F
:1007F000CF936B017C01742EAC019B010E94C70A50
:1008000069E371E0811126C046015701E894B7F809
:100810002FEF3FEF4FE75FE7C501B4010E94C70A22
:1008200081110CC02FEF3FEF4FE75FE7C501B40127
:100830000E94FD086DE371E0181664F02FEF3FEFA2
:100840004FE75FE4C701B6010E94550A1816ACF4E1
:1008500061E471E085EB94E0CF911F910F91FF90DF
:10086000EF90DF90CF90BF90AF909F908F907F9050
:100870006F905F904F900C9482032FEF3FEF4FE704
:100880005FECC701B6010E94FD0887FDE1CF20E0C3
:1008900030E0A901C701B6010E94FD0810E000E0A8
:1008A00087FF0AC06DE285EB94E00E94C9018C01CC
:1008B000F7FAF094F7F8F094C0E060E070E080E0C0
:1008C0009FE37C1641F020E030E040E251E40E94DA
:1008D0000209CF5FF6CFA70196010E9491082B0174
:1008E0003C010E9474094B015C014AE00E949103A3
:1008F0007C01E00EF11ECC23C1F1C501B4010E94C0
:10090000A3099B01AC01C301B2010E9490084B01F5
:100910005C016EE285EB94E00E94C901E80EF91ECD
:10092000C15018F120E030E040E251E4C501B401CB
:100930000E945A0A2B013C010E9474094B01B12C00
:10094000A12C4AE0C501B4010E949103E80EF91EF2
:10095000C501B4010E94A3099B01AC01C301B2010E
:100960000E9490084B015C01DBCFC701CF911F9122
:100970000F91FF90EF90DF90CF90BF90AF909F903E
:100980008F907F906F905F904F9008951F920F927D
:100990000FB60F9211242F933F938F939F93AF9392
:1009A000BF938091AD049091AE04A091AF04B0913B
:1009B000B0043091AC0423E0230F2D3758F5019695
:1009C000A11DB11D2093AC048093AD049093AE049F
:1009D000A093AF04B093B0048091B1049091B2049D
:1009E000A091B304B091B4040196A11DB11D8093F0
:1009F000B1049093B204A093B304B093B404BF9134
:100A0000AF919F918F913F912F910F900FBE0F90BB
:100A10001F90189526E8230F0296A11DB11DD2CF75
:100A20001F920F920FB60F9211242F933F934F9363
:100A30005F936F937F938F939F93AF93BF93EF9346
:100A4000FF9385EB94E00E94A701FF91EF91BF9186
:100A5000AF919F918F917F916F915F914F913F9156
:100A60002F910F900FBE0F901F9018951F920F920D
:100A70000FB60F9211242F938F939F93EF93FF93B1
:100A8000E091C504F091C6048081E091CB04F0911F
:100A9000CC0482FD1BC090818091CE048F5F8F7348
:100AA0002091CF04821741F0E091CE04F0E0EB54A6
:100AB000FB4F958F8093CE04FF91EF919F918F9183
:100AC0002F910F900FBE0F901F9018958081F4CF3B
:100AD000E5EBF4E01382128288EE93E0A0E0B0E050
:100AE00084839583A683B7838CE191E0918380838F
:100AF00085EC90E09587848784EC90E097878687E3
:100B000080EC90E0918B808B81EC90E0938B828BDA
:100B100082EC90E0958B848B86EC90E0978B868BB3
:100B2000118E128E138E148EE2E5F5E0138212827E
:100B30008EE291E0918380838DE084838FEF8583C3
:100B40008CE086838BE087838AE0808789E08187D9
:100B500088E082871386148615861686178681E0BC
:100B60000C94D602CF93DF93CDB7DEB766970FB65E
:100B7000F894DEBF0FBECDBF789484B5826084BD8B
:100B800084B5816084BD85B5826085BD85B5816091
:100B900085BD80916E00816080936E00109281000F
:100BA00080918100826080938100809181008160CA
:100BB000809381008091800081608093800080918B
:100BC000B10084608093B1008091B0008160809317
:100BD000B00080917A00846080937A0080917A00DE
:100BE000826080937A0080917A00816080937A009D
:100BF00080917A00806880937A001092C100E09121
:100C0000C504F091C60482E08083E091C104F091B4
:100C1000C2041082E091C304F091C4048FEC80837D
:100C20001092CD04E091C904F091CA0486E080835B
:100C3000E091C704F091C804808180618083E091D5
:100C4000C704F091C804808188608083E091C70464
:100C5000F091C804808180688083E091C704F0919E
:100C6000C80480818F7D808360E08EE00E94D30085
:100C700061E087E00E94D30082E00E94D6028AE110
:100C800093E09A83898310E40E94040110937C000E
:100C900080917A00806480937A0080917A0086FD4A
:100CA000FCCF6091780070917900072E000C880BC2
:100CB000990B0E94A50920E030EC4FE754E40E9414
:100CC0000209A981BA816D937D938D939D93BA8317
:100CD000A9830E9404014B015C0144E0C42ED12C85
:100CE000E12CF12C0E940401681979098A099B09F9
:100CF000683E734081059105A8F3B1E0CB1AD10895
:100D0000E108F108E8EE8E0EE3E09E1EA11CB11C86
:100D1000C114D104E104F10429F789819A818A5A26
:100D2000944009F0B1CF85E491E00E94D7038DE4AF
:100D300091E00E94D70381E00E94D0028BE39FE103
:100D40000197F1F7E1E0809165058111E0E0E1951F
:100D5000F0E0EE5AFA4F848980680E94D00265E57F
:100D600071E082E595E00E94820308E811E080913D
:100D7000000190910101A0910201B09103018983CA
:100D80009A83AB83BC8380911E0390911F03A09133
:100D90002003B091210389879A87AB87BC87809114
:100DA0001A0390911B03A0911C03B0911D038D8722
:100DB0009E87AF87B88B3AE1232E33E0332E412C48
:100DC000512C3201730162011E8A1D8AAD89BE89D0
:100DD000AB2B09F460C18090100190901101A0909C
:100DE0001201B09013018091040190910501A0912E
:100DF0000601B09107018D839E83AF83B887AD89CB
:100E0000BE8923E73BEE4EE05CE3119709F40CC189
:100E1000F10160817181828193810E945A0A698BFC
:100E20007A8B8B8B9C8BA5019401C301B2010E942C
:100E30005A0A9B01AC0169897A898B899C890E9435
:100E400090084B015C0120911401309115014091F3
:100E5000160150911701C701B6010E945A0A9B0161
:100E6000AC01C501B4010E9490086B017C0129818D
:100E70003A814B815C810E945A0A4B015C012D81B1
:100E80003E814F815885C301B2010E945A0A9B01DD
:100E9000AC01C501B4010E9491084B015C01209195
:100EA00008013091090140910A0150910B018D898F
:100EB0009E89029709F0B1C060E070E0CB010E940A
:100EC0005A0AA50194010E949108D8016D937D935F
:100ED0008D939C931397ED89FE893196FE8BED8B54
:100EE0000C5F1F4FF4E02F0E311C8D899E898436D4
:100EF000910509F06BCFA8E8B1E0B093AB04A093E3
:100F0000AA0410921903109218038091180390916B
:100F10001903843691050CF0F6C06C01092E000C03
:100F2000EE08FF0897FFD4C06DE285EB94E00E94C5
:100F3000C90166277727CB016C197D098E099F09A6
:100F40004AE00E94910365E871E085EB94E00E941D
:100F50008203E0911803F0911903EE0FFF1FEE0FCB
:100F6000FF1FE65EFC4F608171818281938142E0C8
:100F70000E94EA0365E871E085EB94E00E94820339
:100F8000E0911803F0911903EE0FFF1FEE0FFF1F02
:100F9000E857FE4F608171818281938142E00E9417
:100FA000EA0388E391E00E94D703E0911803F091EF
:100FB0001903EE0FFF1FEE0FFF1FE857FE4F20E053
:100FC00030E040E05FE360817181828193810E9423
:100FD000550A18160CF082C061E087E00E94870075
:100FE000E0916505E23008F077C0E150F0E0EE5A9C
:100FF000FA4F848980680E94D00265E671E082E53C
:1010000095E00E9482038091180390911903019644
:10101000909319038093180378CFF8013897608173
:101020007181828193814BCF69857A858B859C857F
:101030000E945A0A2B013C01A5019401C701B60187
:101040000E945A0A9B01AC01C301B2010E949008A0
:101050002B013C012D813E814F815885C701B6018E
:101060000E945A0A4B015C0129813A814B815C81C3
:10107000C301B2010E945A0A9B01AC01C501B4012F
:101080000E94910860938C0170938D0180938E0172
:1010900090938F0120CF23E73BEE4EE05CE36D851C
:1010A0007E858F8598890E945A0A6B017C01AC016C
:1010B0009B0169817A818B819C810E945A0A60938D
:1010C00088017093890180938A0190938B0103CFEB
:1010D0004AE0C701B60135CFE1E088CF60E087E0A4
:1010E0000E948700E0916505E23058F4E150F0E09D
:1010F000EE5AFA4F848980680E94D00266E771E058
:101100007ECFE1E0F4CFE0E0F0E0EF2B09F42DCE6C
:101110000E949301882309F428CE0E94000025CE66
:101120005058BB27AA270E94A8080C941B0A0E94AB
:101130000D0A38F00E94140A20F039F49F3F19F488
:1011400026F40C940A0A0EF4E095E7FB0C94040ACA
:10115000E92F0E942C0A58F3BA1762077307840715
:10116000950720F079F4A6F50C944E0A0EF4E0955C
:101170000B2EBA2FA02D0B01B90190010C01CA0151
:10118000A0011124FF27591B99F0593F50F4503EFC
:1011900068F11A16F040A22F232F342F4427585FEE
:1011A000F3CF469537952795A795F0405395C9F706
:1011B0007EF41F16BA0B620B730B840BBAF09150BE
:1011C000A1F0FF0FBB1F661F771F881FC2F70EC05D
:1011D000BA0F621F731F841F48F487957795679530
:1011E000B795F7959E3F08F0B0CF9395880F08F01C
:1011F0009927EE0F9795879508950E94E00908F4C6
:1012000081E008950E9416090C941B0A0E94140A9A
:1012100058F00E940D0A40F029F45F3F29F00C9429
:10122000040A51110C944F0A0C940A0A0E942C0AC9
:1012300068F39923B1F3552391F3951B550BBB2705
:10124000AA2762177307840738F09F5F5F4F220F4A
:10125000331F441FAA1FA9F335D00E2E3AF0E0E841
:1012600032D091505040E695001CCAF72BD0FE2F8B
:1012700029D0660F771F881FBB1F2617370748071F
:10128000AB07B0E809F0BB0B802DBF01FF279358D7
:101290005F4F3AF09E3F510578F00C94040A0C948D
:1012A0004F0A5F3FE4F3983ED4F3869577956795B0
:1012B000B795F7959F5FC9F7880F911D969587950C
:1012C00097F90895E1E0660F771F881FBB1F62172B
:1012D00073078407BA0720F0621B730B840BBA0BE9
:1012E000EE1F88F7E09508950E94340A88F09F5712
:1012F00098F0B92F9927B751B0F0E1F0660F771F3A
:10130000881F991F1AF0BA95C9F714C0B13091F02F
:101310000E944E0AB1E008950C944E0A672F782F70
:101320008827B85F39F0B93FCCF3869577956795F4
:10133000B395D9F73EF490958095709561957F4F60
:101340008F4F9F4F0895E89409C097FB3EF4909506
:101350008095709561957F4F8F4F9F4F9923A9F08E
:10136000F92F96E9BB279395F6958795779567951D
:10137000B795F111F8CFFAF4BB0F11F460FF1BC061
:101380006F5F7F4F8F4F9F4F16C0882311F096E9F4
:1013900011C0772321F09EE8872F762F05C06623A2
:1013A00071F096E8862F70E060E02AF09A95660F5B
:1013B000771F881FDAF7880F9695879597F9089514
:1013C000990F0008550FAA0BE0E8FEEF1616170656
:1013D000E807F907C0F012161306E407F50798F0BE
:1013E000621B730B840B950B39F40A2661F0232BD7
:1013F000242B252B21F408950A2609F4A140A69553
:101400008FEF811D811D089597F99F6780E870E037
:1014100060E008959FEF80EC089500240A9416166A
:10142000170618060906089500240A9412161306D2
:10143000140605060895092E0394000C11F4882360
:1014400052F0BB0F40F4BF2B11F460FF04C06F5F7C
:101450007F4F8F4F9F4F089557FD9058440F551F52
:1014600059F05F3F71F04795880F97FB991F61F026
:101470009F3F79F087950895121613061406551F9D
:10148000F2CF4695F1DF08C0161617061806991F09
:10149000F1CF86957105610508940895E894BB27FE
:1014A00066277727CB0197F908950E94E00908F491
:1014B0008FEF08950E946D0A0C941B0A0E940D0A7A
:1014C00038F00E94140A20F0952311F00C94040ABD
:1014D0000C940A0A11240C944F0A0E942C0A70F3EF
:1014E000959FC1F3950F50E0551F629FF001729FC9
:1014F000BB27F00DB11D639FAA27F00DB11DAA1FD8
:10150000649F6627B00DA11D661F829F2227B00D24
:10151000A11D621F739FB00DA11D621F839FA00DAF
:10152000611D221F749F3327A00D611D231F849FFF
:10153000600D211D822F762F6A2F11249F57504056
:101540009AF0F1F088234AF0EE0FFF1FBB1F661FD1
:10155000771F881F91505040A9F79E3F510580F09A
:101560000C94040A0C944F0A5F3FE4F3983ED4F3C2
:10157000869577956795B795F795E7959F5FC1F73E
:10158000FE2B880F911D9695879597F908950E94D7
:10159000E009880B990B0895A1E21A2EAA1BBB1B28
:1015A000FD010DC0AA1FBB1FEE1FFF1FA217B3072F
:1015B000E407F50720F0A21BB30BE40BF50B661F45
:1015C000771F881F991F1A9469F760957095809509
:1015D00090959B01AC01BD01CF010895EE0FFF1F57
:1015E0000590F491E02D0994F894FFCF0000803F1E
:1015F000000000400000803F0000803FF206DCBF9A
:101600009BFC403F00000000C90129015601160261
:10161000870165017901000000007C032901370280
:1016200036020D0A006E616E00696E66006F7666A6
:10163000006E202058202059002D2D2D2D2D2D2DD0
:10164000004C6967687420496E74656E73697479BB
:10165000005374617475733A20484947482020202C
:1016600020005374617475733A204C4F572020202A
:041670002020000036
:107E0000112484B714BE81FFF0D085E080938100F7
:107E100082E08093C00088E18093C10086E0809377
:107E2000C20080E18093C4008EE0C9D0259A86E02C
:107E300020E33CEF91E0309385002093840096BBD3
:107E4000B09BFECF1D9AA8958150A9F7CC24DD24C4
:107E500088248394B5E0AB2EA1E19A2EF3E0BF2EE7
:107E6000A2D0813461F49FD0082FAFD0023811F036
:107E7000013811F484E001C083E08DD089C08234E0
:107E800011F484E103C0853419F485E0A6D080C0E4
:107E9000853579F488D0E82EFF2485D0082F10E0AE
:107EA000102F00270E291F29000F111F8ED06801E7
:107EB0006FC0863521F484E090D080E0DECF843638
:107EC00009F040C070D06FD0082F6DD080E0C81688
:107ED00080E7D80618F4F601B7BEE895C0E0D1E017
:107EE00062D089930C17E1F7F0E0CF16F0E7DF06D8
:107EF00018F0F601B7BEE89568D007B600FCFDCFD4
:107F0000A601A0E0B1E02C9130E011968C91119780
:107F100090E0982F8827822B932B1296FA010C0160
:107F200087BEE89511244E5F5F4FF1E0A038BF0790
:107F300051F7F601A7BEE89507B600FCFDCF97BE46
:107F4000E89526C08437B1F42ED02DD0F82E2BD052
:107F50003CD0F601EF2C8F010F5F1F4F84911BD097
:107F6000EA94F801C1F70894C11CD11CFA94CF0C13
:107F7000D11C0EC0853739F428D08EE10CD085E9AC
:107F80000AD08FE07ACF813511F488E018D01DD067
:107F900080E101D065CF982F8091C00085FFFCCF94
:107FA0009093C60008958091C00087FFFCCF809118
:107FB000C00084FD01C0A8958091C6000895E0E648
:107FC000F0E098E1908380830895EDDF803219F02E
:107FD00088E0F5DFFFCF84E1DECF1F93182FE3DFCA
:107FE0001150E9F7F2DF1F91089580E0E8DFEE27F6
:047FF000FF270994CA
:027FFE00040479
:00000001FF
